:020000040800F2
:1000000000000820BD6600080D6700080D670008A5
:100010000D6700080D6700080D670008000000006C
:100020000000000000000000000000000D67000854
:100030000D67000800000000F7020008E93D000815
:100040000D6700080D6700080D6700080D670008C0
:100050000D6700080D6700080D6700080D670008B0
:100060000D6700080D6700080D6700080D670008A0
:100070000D6700080D6700080D6700080D67000890
:100080000D6700080D6700080D6700080D67000880
:100090000D6700080D6700080D6700080D67000870
:1000A0000D6700080D6700080D6700080D67000860
:1000B0000D6700080D6700080D6700080D67000850
:1000C0000D6700080D6700080D6700080D67000840
:1000D0000D6700080D6700080D670008616A0008D9
:1000E0000D6700080D6700080D6700080D67000820
:1000F0000D6700080D6700080D6700080D67000810
:100100000D6700080D6700080D6700080D670008FF
:100110000D6700080D6700080D6700080D670008EF
:100120000D6700080D6700080D6700080D670008DF
:100130000D6700080D6700080D6700080D670008CF
:100140000D6700080D6700080D6700080D670008BF
:100150000D6700080D6700080D6700080D670008AF
:100160000D6700080D6700080D6700080D6700089F
:100170000D6700080D6700080D670008000000000B
:100180000D6700080D6700080D6700080D6700087F
:100190000D6700080D6700080D6700080D6700086F
:1001A0000D6700080D6700080D6700080D6700085F
:1001B0000D6700080D6700080D6700080D6700084F
:1001C0000D6700080D670008000000000D670008BB
:1001D0000D6700080D6700080D6700080D6700082F
:1001E0000D6700080D6700080D6700080D6700081F
:0801F0000D6700080D6700080F
:1001F80010B5054C237833B9044B13B10448AFF359
:1002080000800123237010BDD801002000000000E9
:10021800ECD00008084B10B51BB108490848AFF3EB
:1002280000800848036803B910BD074B002BFBD0BA
:10023800BDE81040184700BF00000000DC010020A6
:10024800ECD00008D801002000000000EFF3108077
:1002580072B6704780F31088704772B64EF6225017
:10026800CEF2000040F2FF01C0F200010170002050
:1002780080F3098842F60C60C2F20000016881F33D
:10028800088803F095FD2D480121017041F6F060C2
:10029800C2F2000041F69C61C2F200010A780270C5
:1002A80042F28810C2F2000042F26C11C2F2000160
:1002B8000A680260106880F30988EFF3148040F040
:1002C800020080F31488BFF36F8FBDE8F04F0FBCB6
:1002D800BDE8005006BC62B6084719484FF0805187
:1002E8000160704716484FF080510160704772B640
:1002F800EFF3098020E9F04F42F28815C2F20005B9
:1003080029680860744603F053FD41F6F060C2F2B4
:10031800000041F69C61C2F200010A78027042F2C4
:100328006C11C2F200010A682A6044F0040E1068D9
:10033800B0E8F04F80F3098862B67047961E002037
:1003480004ED00E072B6704762B67047EFF31080B4
:1003580072B6704780F31088704730BF704720BF6F
:100368007047B0FA80F0704790FAA0F0B0FA80F0C9
:10037800704790FAA0F0704781F0004102E000BF9A
:1003880083F0004330B54FEA41044FEA430594EA4D
:10039800050F08BF90EA020F1FBF54EA000C55EA88
:1003A800020C7FEA645C7FEA655C00F0E2804FEA59
:1003B8005454D4EB5555B8BF6D420CDD2C4480EA3B
:1003C800020281EA030382EA000083EA010180EA6B
:1003D800020281EA0303362D88BF30BD11F0004FB9
:1003E8004FEA01314FF4801C4CEA113102D04042EF
:1003F80061EB410113F0004F4FEA03334CEA13332A
:1004080002D0524263EB430394EA050F00F0A78041
:10041800A4F10104D5F1200E0DDB02FA0EFC22FA3C
:1004280005F2801841F1000103FA0EF2801843FA30
:1004380005F359410EE0A5F120050EF1200E012A21
:1004480003FA0EFC28BF4CF0020C43FA05F3C0185F
:1004580051EBE37101F0004507D54FF0000EDCF1D8
:10046800000C7EEB00006EEB0101B1F5801F1BD381
:10047800B1F5001F0CD349085FEA30004FEA3C0C85
:1004880004F101044FEA445212F5800F80F09A807B
:10049800BCF1004F08BF5FEA500C50F1000041EB7F
:1004A800045141EA050130BD5FEA4C0C404141EB83
:1004B800010111F4801FA4F10104E9D191F0000FAA
:1004C80004BF01460020B1FA81F308BF2033A3F12D
:1004D8000B03B3F120020CDA0C3208DD02F1140C24
:1004E800C2F10C0201FA0CF021FA02F10CE002F15F
:1004F8001402D8BFC2F1200C01FA02F120FA0CFC58
:10050800DCBF41EA0C019040E41AA2BF01EB0451A0
:10051800294330BD6FEA04041F3C1CDA0C340EDC9E
:1005280004F11404C4F1200220FA04F001FA02F3E1
:1005380040EA030021FA04F345EA030130BDC4F19F
:100548000C04C4F1200220FA02F001FA04F340EA94
:100558000300294630BD21FA04F0294630BD94F045
:10056800000F83F4801306BF81F480110134013D2C
:100578004EE77FEA645C18BF7FEA655C29D094EA9D
:10058800050F08BF90EA020F05D054EA000C04BF1B
:100598001946104630BD91EA030F1EBF0021002006
:1005A80030BD5FEA545C05D14000494128BF41F0A5
:1005B800004130BD14F580043CBF01F5801130BD09
:1005C80001F0004545F0FE4141F470014FF0000094
:1005D80030BD7FEA645C1ABF194610467FEA655C45
:1005E8001CBF0B46024650EA013406BF52EA0335E7
:1005F80091EA030F41F4002130BD00BF90F0000FD5
:1006080004BF0021704730B54FF4806404F1320410
:100618004FF000054FF0000150E700BF90F0000FC9
:1006280004BF0021704730B54FF4806404F13204F0
:1006380010F0004548BF40424FF000013EE700BFC0
:1006480042004FEAE2014FEA31014FEA02701FBF50
:1006580012F07F4393F07F4F81F06051704792F022
:10066800000F14BF93F07F4F704730B54FF460749C
:1006780001F0004521F0004120E700BF50EA0102E7
:1006880008BF704730B54FF000050AE050EA010294
:1006980008BF704730B511F0004502D5404261EB04
:1006A80041014FF4806404F132045FEA915C3FF445
:1006B800DCAE4FF003025FEADC0C18BF03325FEADE
:1006C800DC0C18BF033202EBDC02C2F1200300FA93
:1006D80003FC20FA02F001FA03FE40EA0E0021FAB8
:1006E80002F11444C1E600BF70B54FF0FF0C4CF4A2
:1006F800E06C1CEA11541DBF1CEA135594EA0C0F58
:1007080095EA0C0F00F0DEF82C4481EA030621EA92
:100718004C5123EA4C5350EA013518BF52EA0335CD
:1007280041F4801143F4801338D0A0FB02CE4FF07F
:100738000005E1FB02E506F00042E0FB03E54FF0AF
:100748000006E1FB03569CF0000F18BF4EF0010EA7
:10075800A4F1FF04B6F5007F64F5407404D25FEAA3
:100768004E0E6D4146EB060642EAC62141EA555156
:100778004FEAC52040EA5E504FEACE2EB4F1FD0C98
:1007880088BFBCF5E06F1ED8BEF1004F08BF5FEA16
:10079800500E50F1000041EB045170BD06F00046C8
:1007A80046EA010140EA020081EA0301B4EB5C0475
:1007B800C2BFD4EB0C0541EA045170BD41F480116D
:1007C8004FF0000E013C00F3AB8014F1360FDEBF92
:1007D800002001F0004170BDC4F10004203C35DA6E
:1007E8000C341BDC04F11404C4F1200500FA05F3F1
:1007F80020FA04F001FA05F240EA020001F0004292
:1008080021F0004110EBD37021FA04F642EB060107
:100818005EEA430E08BF20EAD37070BDC4F10C0431
:10082800C4F1200500FA04F320FA05F001FA04F2F5
:1008380040EA020001F0004110EBD37041F10001E1
:100848005EEA430E08BF20EAD37070BDC4F12005EC
:1008580000FA05F24EEA020E20FA04F301FA05F254
:1008680043EA020321FA04F001F0004121FA04F2FC
:1008780020EA020000EBD3705EEA430E08BF20EACC
:10088800D37070BD94F0000F0FD101F00046400006
:1008980041EB010111F4801F08BF013CF7D041EA88
:1008A800060195F0000F18BF704703F0004652008C
:1008B80043EB030313F4801F08BF013DF7D043EA5D
:1008C8000603704794EA0C0F0CEA135518BF95EA13
:1008D8000C0F0CD050EA410618BF52EA4306D1D19A
:1008E80081EA030101F000414FF0000070BD50EAB9
:1008F800410606BF1046194652EA430619D094EA43
:100908000C0F02D150EA013613D195EA0C0F05D12C
:1009180052EA03361CBF104619460AD181EA030180
:1009280001F0004141F0FE4141F470014FF0000038
:1009380070BD41F0FE4141F4780170BD70B54FF0D3
:10094800FF0C4CF4E06C1CEA11541DBF1CEA135553
:1009580094EA0C0F95EA0C0F00F0A7F8A4EB050435
:1009680081EA030E52EA03354FEA013100F088802C
:100978004FEA03334FF0805545EA131343EA1263F5
:100988004FEA022245EA111545EA10654FEA0026AA
:100998000EF000419D4208BF964244F1FD0404F563
:1009A800407402D25B084FEA3202B61A65EB0305BF
:1009B8005B084FEA32024FF480104FF4002CB6EB7C
:1009C800020E75EB030E22BFB61A754640EA0C00FC
:1009D8005B084FEA3202B6EB020E75EB030E22BF3C
:1009E800B61A754640EA5C005B084FEA3202B6EB7D
:1009F800020E75EB030E22BFB61A754640EA9C003C
:100A08005B084FEA3202B6EB020E75EB030E22BF0B
:100A1800B61A754640EADC0055EA060E18D04FEAC9
:100A2800051545EA16754FEA06164FEAC30343EA69
:100A380052734FEAC2025FEA1C1CC0D111F4801F36
:100A48000BD141EA00014FF000004FF0004CB6E72F
:100A580011F4801F04BF01430020B4F1FD0C88BFCE
:100A6800BCF5E06F3FF6AFAEB5EB030C04BFB6EBD9
:100A7800020C5FEA500C50F1000041EB045170BDCC
:100A88000EF0004E4EEA113114EB5C04C2BFD4EBF9
:100A98000C0541EA045170BD41F480114FF0000E7D
:100AA800013C90E645EA060E8DE60CEA135594EAF9
:100AB8000C0F08BF95EA0C0F3FF43BAF94EA0C0FFC
:100AC8000AD150EA01347FF434AF95EA0C0F7FF471
:100AD80025AF104619462CE795EA0C0F06D152EAC5
:100AE80003353FF4FDAE1046194622E750EA4106A9
:100AF80018BF52EA43067FF4C5AE50EA41047FF4BA
:100B08000DAF52EA43057FF4EBAE12E74FF0FF3C1E
:100B180006E000BF4FF0010C02E000BF4FF0010CEF
:100B28004DF804CD4FEA410C7FEA6C5C4FEA430C68
:100B380018BF7FEA6C5C1BD001B050EA410C0CBFB7
:100B480052EA430C91EA030F02BF90EA020F002019
:100B5800704710F1000F91EA030F58BF994208BF80
:100B680090422CBFD8176FEAE37040F0010070473D
:100B78004FEA410C7FEA6C5C02D150EA013C07D194
:100B88004FEA430C7FEA6C5CD6D152EA033CD3D0DF
:100B98005DF8040B704700BF8446104662468C46D9
:100BA8001946634600E000BF01B5FFF7B7FF00280C
:100BB80048BF10F1000F01BD4DF808EDFFF7F4FF35
:100BC8000CBF012000205DF808FB00BF4DF808EDC0
:100BD800FFF7EAFF34BF012000205DF808FB00BFE3
:100BE8004DF808EDFFF7E0FF94BF012000205DF805
:100BF80008FB00BF4DF808EDFFF7CEFF94BF0120BA
:100C080000205DF808FB00BF4DF808EDFFF7C4FFB2
:100C180034BF012000205DF808FB00BF4FEA410205
:100C2800B2F1E04324BFB3F5001CDCF1FE5C0DD942
:100C380001F0004C4FEAC0024CEA5070B2F1004F8C
:100C480040EB830008BF20F00100704711F0804F8F
:100C580021D113F13872BCBF01F00040704741F454
:100C680080114FEA5252C2F11802C2F1200C10FA58
:100C78000CF320FA02F018BF40F001004FEAC1233C
:100C88004FEAD32303FA0CFC40EA0C0023FA02F3E0
:100C98004FEA4303CCE77FEA625307D150EA0133B6
:100CA8001EBF4FF0FE4040F44000704701F0004086
:100CB80040F0FE4040F40000704700BF80F0004064
:100CC80002E000BF81F0004142001FBF5FEA41031C
:100CD80092EA030F7FEA226C7FEA236C6AD04FEA1C
:100CE8001262D2EB1363C1BFD21841404840414061
:100CF800B8BF5B42192B88BF704710F0004F40F413
:100D0800000020F07F4018BF404211F0004F41F42E
:100D1800000121F07F4118BF494292EA030F3FD0FA
:100D2800A2F1010241FA03FC10EB0C00C3F120030D
:100D380001FA03F100F0004302D5494260EB40009C
:100D4800B0F5000F13D3B0F1807F06D340084FEA07
:100D5800310102F10102FE2A51D2B1F1004F40EBFC
:100D6800C25008BF20F0010040EA03007047490064
:100D780040EB000010F4000FA2F10102EDD1B0FA2F
:100D880080FCACF1080CB2EB0C0200FA0CF0AABF24
:100D980000EBC25052421843BCBFD04018437047C2
:100DA80092F0000F81F4000106BF80F400000132C8
:100DB800013BB5E74FEA41037FEA226C18BF7FEA9F
:100DC800236C21D092EA030F04D092F0000F08BFE1
:100DD8000846704790EA010F1CBF0020704712F0C8
:100DE8007F4F04D1400028BF40F00040704712F107
:100DF80000723CBF00F50000704700F0004343F06C
:100E0800FE4040F4000070477FEA226216BF0846A1
:100E18007FEA23630146420206BF5FEA412390EA64
:100E2800010F40F4800070474FF0000304E000BF5A
:100E380010F0004348BF40425FEA000C08BF70470B
:100E480043F0964301464FF000001CE050EA0102CF
:100E580008BF70474FF000030AE000BF50EA0102E4
:100E680008BF704711F0004302D5404261EB4101D1
:100E78005FEA010C02BF84460146002043F0B643F6
:100E880008BFA3F18053A3F50003BCFA8CF2083A1B
:100E9800A3EBC25310DB01FA02FC634400FA02FC24
:100EA800C2F12002BCF1004F20FA02F243EB02002B
:100EB80008BF20F00100704702F1200201FA02FC8D
:100EC800C2F1200250EA4C0021FA02F243EB020080
:100ED80008BF20EADC7070474FF0FF0C1CEAD052C4
:100EE8001EBF1CEAD15392EA0C0F93EA0C0F6FD085
:100EF8001A4480EA010C400218BF5FEA41211ED063
:100F08004FF0006343EA501043EA5111A0FB01314E
:100F18000CF00040B1F5000F3EBF490041EAD37123
:100F28005B0040EA010062F17F02FD2A1DD8B3F19F
:100F3800004F40EBC25008BF20F00100704790F00E
:100F4800000F0CF0004C08BF49024CEA502040EA60
:100F580051207F3AC2BFD2F1FF0340EAC250704726
:100F680040F400004FF00003013A5DDC12F1190F64
:100F7800DCBF00F000407047C2F10002410021FAD6
:100F880002F1C2F1200200FA02FC5FEA310040F1EE
:100F9800000053EA4C0308BF20EADC70704792F067
:100FA800000F00F0004C02BF400010F4000F013A9F
:100FB800F9D040EA0C0093F0000F01F0004C02BF9A
:100FC800490011F4000F013BF9D041EA0C018FE709
:100FD8000CEAD15392EA0C0F18BF93EA0C0F0AD00F
:100FE80030F0004C18BF31F0004CD8D180EA010035
:100FF80000F00040704790F0000F17BF90F0004FCE
:10100800084691F0000F91F0004F14D092EA0C0FAF
:1010180001D142020FD193EA0C0F03D14B0218BF42
:10102800084608D180EA010000F0004040F0FE4088
:1010380040F40000704740F0FE4040F44000704724
:101048004FF0FF0C1CEAD0521EBF1CEAD15392EAA3
:101058000C0F93EA0C0F69D0A2EB030280EA010C93
:1010680049024FEA402037D04FF0805343EA11112C
:1010780043EA10130CF000408B4238BF5B0042F18A
:101088007D024FF4000C8B4224BF5B1A40EA0C002F
:10109800B3EB510F24BFA3EB510340EA5C00B3EB61
:1010A800910F24BFA3EB910340EA9C00B3EBD10F4F
:1010B80024BFA3EBD10340EADC001B0118BF5FEAA1
:1010C8001C1CE0D1FD2A3FF650AF8B4240EBC250CA
:1010D80008BF20F0010070470CF0004C4CEA50208B
:1010E8007F32C2BFD2F1FF0340EAC250704740F4DA
:1010F80000004FF00003013A37E792F0000F00F0CC
:10110800004C02BF400010F4000F013AF9D040EA49
:101118000C0093F0000F01F0004C02BF490011F4DD
:10112800000F013BF9D041EA0C0195E70CEAD153D5
:1011380092EA0C0F08D142027FF47DAF93EA0C0FBC
:101148007FF470AF084676E793EA0C0F04D14B02A0
:101158003FF44CAF08466EE730F0004C18BF31F052
:10116800004CCAD130F000427FF45CAF31F000434C
:101178007FF43CAF5FE700BF4FF0FF3C06E000BFE5
:101188004FF0010C02E000BF4FF0010C4DF804CD08
:101198004FEA40024FEA41037FEA226C18BF7FEA18
:1011A800236C11D001B052EA530C18BF90EA010F1A
:1011B80058BFB2EB030088BFC81738BF6FEAE170A9
:1011C80018BF40F0010070477FEA226C02D15FEA45
:1011D800402C05D17FEA236CE4D15FEA412CE1D0B1
:1011E8005DF8040B704700BF844608466146FFE778
:1011F8000FB5FFF7C9FF002848BF10F1000F0FBD5A
:101208004DF808EDFFF7F4FF0CBF012000205DF852
:1012180008FB00BF4DF808EDFFF7EAFF34BF0120D7
:1012280000205DF808FB00BF4DF808EDFFF7E0FF70
:1012380094BF012000205DF808FB00BF4DF808EDC1
:10124800FFF7D2FF94BF012000205DF808FB00BF24
:101258004DF808EDFFF7C8FF34BF012000205DF806
:1012680008FB00BF034613F8012B002AFBD1181A0C
:10127800013870474FEA410C7FEA6C5C02D150EAB2
:10128800013C0AD14FEA430C7FEA6C5C02D152EA76
:10129800033C02D14FF0000070474FF00100704747
:1012A8004FEA410212F5001215D211D56FF4787386
:1012B800B3EB625212D94FEAC12343F0004343EA29
:1012C800505311F0004F23FA02F018BF4042704704
:1012D8004FF00000704750EA013005D111F000408E
:1012E80008BF6FF0004070474FF00000704700BF24
:1012F8004A0011D212F5001211D20DD56FF478738D
:10130800B3EB62520ED44FEAC12343F0004343EAE1
:10131800505323FA02F070474FF00000704750EA2C
:10132800013002D14FF0FF3070474FF00000704796
:1013380080B584B000AF78600023FB60204B1B7839
:10134800002B37D11F4B1B78002B35D17B68002B26
:1013580033D0FEF77BFFF8601B4B1B6893F83830DF
:10136800FB72FB7AFA7A1949895C174A126892F873
:101378003920D243D2B20A40D1B2144AD154FB7AAE
:10138800124AD35C002B0BD10F4B1B6893F83A30F1
:10139800DB43DAB20E4B1B781340DAB20C4B1A70EF
:1013A800094B1B687A681A63F868FEF753FF02F066
:1013B80059F902E000BF00E000BF1037BD4680BD0C
:1013C80084210020941E00208821002078210020FC
:1013D8007421002090B585B000AF04460846114638
:1013E8001A462346FB710346BB710B467B711346B5
:1013F8007B80184B1B78002B01D0552325E0164B1A
:101408001B78002B01D032231FE0FB794FF4616277
:1014180002FB03F1BA7913461B019B1A9B00CA18F9
:101428007B7913444FF47A7202FB03F27B884FF402
:101438007A7101FB03F30949A1FB03139B091344C8
:10144800FB60F868FFF774FF002318461437BD46A1
:1014580090BD00BF84210020941E0020D34D62104F
:1014680080B582B000AF00237B60FEF7EFFE7860A6
:10147800054B1B683B607868FEF7ECFE3B68184636
:101488000837BD4680BD00BF8C21002080B58CB0D8
:1014980004AFF860B9607A60FB700023FB61FEF767
:1014A800D5FEF861284B1B78002B04D0F869FEF7AD
:1014B800D1FE3C2344E0FB78244A52F82330002B29
:1014C8003AD1FB78214A012142F82310F869FEF746
:1014D800C1FE3B8F1A46396BF86A00F057FA3B8F0A
:1014E8007A68B968F86802F0D9FBB8613A8DF8787B
:1014F8003B8F02937B6B01933B6B00931346FA6A15
:10150800B96902F0B9F90346FB75FB7D002B06D1DA
:101518000F4B1B78012B0DD102F0A4F80AE0FEF75F
:1015280095FEF861FB78094A002142F82310F86912
:10153800FEF790FEFB7D03E0F869FEF78BFE28239B
:1015480018462037BD4680BD84210020082D002084
:10155800961E002080B586B000AF0346FB710023BD
:101568007B61694B1B78002B01D04023C7E0FB79D6
:101578003F2B01D13E23C2E0FEF768FE7861FB797C
:10158800FF2B04D1614B1B6893F83630FB71FB7954
:101598005F4A52F823303B613B69002B04D17869DC
:1015A800FEF758FE4323AAE03B69012B04D1786972
:1015B800FEF750FE3D23A2E03B6993F83830194608
:1015C8003B6993F838301A46524B9A5C3B6993F85A
:1015D8003930DB43DBB21340DAB24E4B5A543B6925
:1015E80093F838301A464B4B9B5C002B0AD13B6969
:1015F80093F83A30DB43DAB2474B1B781340DAB240
:10160800454B1A703B69DB69002B05D03B69DB69E8
:101618001946386901F02CFE3B691B6A002B05D07E
:101628003B691B6A1946386901F054FE3B699B6A9D
:10163800FB60FB68002B02D0F86801F079FB3B697E
:1016480000221A633B69002283F834203B69002298
:1016580083F83520314B1B78FF2B05D02F4B1B7897
:101668000133DAB22D4B1A707869FEF7F3FD01F0F9
:101678002FFDFEF7EBFD7861284B1B78002B05D07A
:10168800264B1B78013BDAB2244B1A70386902F0FA
:10169800E1FA234B1B78013BDAB2214B1A70FB7934
:1016A8001B4A002142F823103B699B69002B08D193
:1016B8003B695B6900229A613B695B69194A13605F
:1016C80009E03B699B693A6952695A613B695B6900
:1016D8003A6992699A61144B1A683B695A61124ACD
:1016E8003B6913603B69114A1A657869FEF7B2FDD8
:1016F8000F4B1B78012B01D101F0B4FF00231846D2
:101708001837BD4680BD00BF8421002088210020F5
:10171800082D00207821002074210020941E00202C
:1017280009210020F41E00200421002008D100080F
:10173800961E002080B586B000AF0346B9607A6077
:10174800FB7300237B611C4B1B78002B03D07B6849
:1017580012221A702CE0FEF779FD7861FB7BFF2BD3
:1017680004D1164B1B6893F83630FB73FB7B144A85
:1017780052F823303B613B69002B06D17869FEF7AC
:1017880069FD7B6843221A7012E03B69012B06D180
:101798007869FEF75FFD7B6843221A7008E03B69B1
:1017A800BA681A657869FEF755FD7B6800221A70D9
:1017B8001837BD4680BD00BF842100208821002045
:1017C800082D002080B588B000AF03463960FB7152
:1017D80000237B613B6800221A603B6800225A6044
:1017E800FEF734FD7861FB79FF2B04D1234B1B688E
:1017F80093F83630FB71FB79214A52F823303B616C
:101808003B69002B04D17869FEF724FD432330E0BF
:101818003B69012B04D17869FEF71CFD432328E0BE
:101828003B691B8A03F00103002B04D17869FEF79A
:1018380011FD45231DE00023BB613B69DB68FB60AC
:101848003B699B68FB617869FEF704FD02E0BB69B0
:101858000133BB61FB691A1DFA611B68002BF6D0C6
:101868003B68BA691A60FA68BB69D21A3B685A6061
:10187800002318462037BD4680BD00BF88210020C0
:10188800082D002080B586B000AF0346FB71002309
:101898003B61FEF7DBFC3861FB79FF2B07D1304B4E
:1018A8001B6893F83630FB710123FB750BE02C4B5A
:1018B8001B6893F83630FA799A4202D10123FB75F6
:1018C80001E00023FB75FB79264A52F82330FB60C0
:1018D800FB68002B04D13869FEF7BCFC48233AE0CA
:1018E800FB68012B04D13869FEF7B4FC432332E0CE
:1018F800FB6893F83830FB72FB7AFA7A1A49895CEC
:10190800FA6892F83920D243D2B20A40D1B2164AC4
:10191800D154FB7A144AD35C002B0AD1FB6893F8A4
:101928003A30DB43DAB2114B1B781340DAB20F4B73
:101938001A70FB6893F8343043F00803DAB2FB6896
:1019480083F834203869FEF785FCFB7D012B01D133
:1019580001F088FE002318461837BD4680BD00BF39
:1019680088210020082D00207821002074210020E3
:1019780080B500AF044B1B68184602F07DF9FF20C4
:10198800FFF7E8FD00BF80BD8821002080B485B046
:1019980000AFF860B9601346FB80FB8803F00103D1
:1019A800002B10D0FB8803F00203002B0BD007E0BC
:1019B800BB68013BBB60FB681A1DFA6000221A6015
:1019C800BB68002BF4D100BF1437BD4680BC7047FC
:1019D80080B584B000AF0346FB800023FB60174B43
:1019E8001B78002B01D0002324E0FEF72FFCF860C1
:1019F800134B1B68BB60124B1B68002B04D0104BA9
:101A08001B685B680E4A1360F868FEF723FCBB6826
:101A1800002B0ED0BB6803221A70BB68FA881A81A3
:101A2800BB6800225A60BB68064A5A61B86801F070
:101A380093FCBB6818461037BD4680BD8421002042
:101A4800802100200CD1000880B586B000AFF86076
:101A5800B9607A6000237B61FB681B78032B03D095
:101A68007B6801221A7072E03A4B1B78002B03D076
:101A78007B6802221A706AE0374B1B78002B03D070
:101A88007B680D221A7062E0FEF7E0FB7861FB6864
:101A98001B89002B0CD0FB681B89013B9AB2FB68A1
:101AA8001A817869FEF7D6FB7B6800221A704EE02F
:101AB8002A4B1B68294A126892F8342042F0010226
:101AC800D2B283F83420254B1B68002283F83520D6
:101AD800224B1B68BA681A63F86801F071FB7869D1
:101AE800FEF7B8FB01F0BEFDFEF7B0FB78611B4BBB
:101AF8001B6893F83530002B02D0022B04D007E086
:101B08007B6800221A700DE07B680E221A7009E0CB
:101B1800124B1B68F968184601F0AAFB7B680A2279
:101B28001A7000BF0D4B1B68002283F834200B4B42
:101B38001B68002283F83520084B1B680022DA61F5
:101B4800064B1B6800221A627869FEF783FB183778
:101B5800BD4680BD84210020941E002088210020DD
:101B680080B584B000AF78600023FB607B681B7889
:101B7800032B01D0012328E0FEF768FBF8607B689F
:101B88009B7A002B0CD0002301220021786801F0F9
:101B9800A5FAF868FEF75EFB01F064FD002314E087
:101BA8007B681B894FF6FF7293420AD07B681B89BA
:101BB80001339AB27B681A81F868FEF74BFB002361
:101BC80003E0F868FEF746FB332318461037BD4696
:101BD80080BD00BF80B586B000AF78600B467B80C3
:101BE80000233B61304B1B78002B01D0002357E0CA
:101BF800FEF72CFB38612D4B1B687B612B4B1B6858
:101C0800002B04D0294B1B685B68284A136038698D
:101C1800FEF720FB7B69002B41D0FEF717FB3861EC
:101C2800234B1B68FB60FB68002B2CD0204B1B68E8
:101C38001B681F4A13603869FEF70CFBFB687A685B
:101C48005A607B889B007A681A44FB689A60FB6834
:101C58007A68DA60FB687A681A61FB687A889A821F
:101C6800FB680022DA827B6902221A707B690022F3
:101C78001A817B69FA685A607B690E4A5A617869E9
:101C880001F06AFB0BE0094B1A687B695A60074A46
:101C98007B6913603869FEF7DDFA00237B617B6995
:101CA80018461837BD4680BD8421002080210020B9
:101CB8007021002010D1000880B588B000AFF8600E
:101CC800B9607A600023BB61FB681B78022B04D0E3
:101CD8007B6801221A70002396E04D4B1B78002B7D
:101CE80004D07B6802221A7000238DE0494B1B78D0
:101CF800002B04D07B680D221A70002384E0FEF7C5
:101D0800A5FAB861FB685B687B617B69DB8A002B9D
:101D18001ED07B691B69191D7A6911611B68FB61FB
:101D28007B69DB8A013B9AB27B69DA827B691A6933
:101D38007B699B689A4203D17B695A687B691A61FF
:101D4800B869FEF787FA7B6800221A70FB695BE0C6
:101D5800314B1B68304A126892F8342042F0040272
:101D6800D2B283F834202C4B1B68002283F835202C
:101D7800294B1B68BA681A63F86801F021FAB86938
:101D8800FEF768FA01F06EFCFEF760FAB861224BC4
:101D98001B6893F83530002B02D0022B08D00DE0D9
:101DA8001D4B1B685B6AFB617B6800221A7011E09F
:101DB8000023FB617B680E221A700BE0164B1B6830
:101DC800F968184601F054FA0023FB617B680A227F
:101DD8001A7000BF104B1B68002283F834200E4B8A
:101DE8001B68002283F835200B4B1B680022DA6140
:101DF800094B1B6800221A62074B1B6800225A62B3
:101E0800B869FEF727FAFB6918462037BD4680BD3A
:101E180084210020941E00208821002080B584B0F1
:101E280000AF786039600023FB607B681B78022B69
:101E380001D001233CE0FEF709FAF8607B689B7A41
:101E4800002B0CD0002304223968786801F046F989
:101E5800F868FEF7FFF901F005FC002328E07B682D
:101E68005B68BB60BB68DA8ABB689B8A9A4204D30A
:101E7800F868FEF7EFF91E231AE0BB68DB68191D46
:101E8800BA68D1603A681A60BB68DB8A01339AB2D3
:101E9800BB68DA82BB68DA68BB689B689A4203D180
:101EA800BB685A68BB68DA60F868FEF7D3F90023A4
:101EB80018461037BD4680BD80B584B000AF60219C
:101EC800194801F0B7FB0023FB8118E0FB890133B7
:101ED800BB81FA8913465B001344DB00124A1344A2
:101EE800BB60BA8913465B001344DB000E4A1344F7
:101EF8007B60BB687A681A60FB890133FB81FB89C8
:101F0800022BE3D9FA8913465B001344DB00064A27
:101F18001344BB60BB6800221A60044B024A1A6073
:101F280000BF1037BD4680BD0C2100207021002065
:101F380080B584B000AF03463960FB710023FB60B5
:101F48002E4B1B78002B04D03B6810221A700023FC
:101F58004FE0FEF77BF9F860FB79FF2B12D0FB7995
:101F6800274A52F82330002B07D0F868FEF772F999
:101F78003B6828221A7000233BE0FB79204A0121A4
:101F880042F823101F4B1B68BB60BB68002B0FD1A6
:101F9800FB79FF2B04D0FB79194A002142F8231062
:101FA800F868FEF757F93B6804221A70BB6820E00E
:101FB800144B1B685B68134A1360F868FEF74AF90C
:101FC800BB6804221A70FB799BB21B029BB243F0D8
:101FD800FF039AB2BB681A81BB6800225A60BB68CB
:101FE800094A5A61B86801F0B7F93B6800221A70CB
:101FF800BB6818461037BD4680BD00BF842100204D
:10200800082D00208021002014D1000880B58AB056
:1020180000AFF860B9607A6000233B62FB681B7808
:10202800042B03D07B6801221A7089E1844B1B784A
:10203800002B03D07B6802221A7081E1814B1B7848
:10204800002B03D07B680D221A7079E1FEF7FEF8A9
:102058003862FB681B891B0A9BB2FB77FB681B89EC
:10206800DBB2FF2B2DD1FB681B8923F0FF039AB24B
:10207800FB681A81FB681A89734B1B6893F8363022
:102088009BB213439AB2FB681A816F4B1A68FB68BC
:102098005A60FB7FFF2B0DD06B4B1B6893F83630D3
:1020A800FA7F9A4206D3386AFEF7D4F87B6878221A
:1020B8001A7045E1386AFEF7CDF87B6800221A707D
:1020C8003EE1FB7FFF2B00F0EC80FB681B89BB77B0
:1020D800FB685B68BB61BB6993F83630FA7F9A424C
:1020E80080F0DF80584B1B6893F83630BA7F9A42ED
:1020F80040F2D780BB6993F83830FB75FB7D534AB3
:10210800D25CBB6993F839301340DBB2002B20D086
:10211800FB7DFA7D4D49895CBA6992F83920D24332
:10212800D2B20A40D1B2494AD154FB7D474AD35C66
:10213800002B0AD1BB6993F83A30DB43DAB2444B3F
:102148001B781340DAB2424B1A70012387F8273004
:102158002DE0BB69DB693B613B69002B24D0BB697F
:1021680093F83830FB75FB7DFA7D39690A44D17ADA
:10217800BA6992F83920D243D2B20A40D1B23A6948
:1021880013440A46DA72FB7D3A691344DB7A002B62
:102198000AD13B699A7ABB6993F83A30DB43DBB2E0
:1021A8001340DAB23B699A72002387F82730BB697B
:1021B800FA7F83F83620BB6993F83630DB08DAB249
:1021C800BB6983F83820BB6993F8363003F00703FE
:1021D800DAB2BB6983F83720BB6993F838301A46FE
:1021E80001239340DAB2BB6983F83A20BB6993F8BC
:1021F80037301A4601239340DAB2BB6983F8392095
:1022080097F82730012B25D1BB6993F83A20104B5A
:102218001B781343DAB20E4B1A70BB6993F8383047
:102228001946BB6993F838301A46084B9A5CBB6963
:1022380093F839301343DAB2044B5A542CE000BFF8
:1022480084210020941E002088210020782100206D
:1022580074210020BB69DB693B613B69002B1BD003
:102268003B699A7ABB6993F83A301343DAB23B690F
:102278009A72BB6993F838301946BB6993F83830BD
:102288001A463B691344DA7ABB6993F83930134329
:10229800DAB23B690B44DA72FB7F2B49BA6941F821
:1022A80023202A4B1B68294A126892F8342042F0EE
:1022B8001002D2B283F83420244B1B68002283F822
:1022C8003520224B1B68BA681A63F86800F078FF5B
:1022D800386AFDF7BFFF01F0C5F9FDF7B7FF3862AF
:1022E8001A4B1B6893F83530002B02D0022B04D010
:1022F80007E07B6800221A700DE07B680E221A70D6
:1023080009E0124B1B68F968184600F0B1FF7B68BA
:102318000A221A7000BF0D4B1B68002283F8342074
:102328000A4B1B68002283F83520084B1B680022E3
:10233800DA61064B1B6800221A62386AFDF78AFFC9
:102348002837BD4680BD00BF082D00208821002009
:1023580080B584B000AF78600023FB603F4B1B78EA
:10236800002B01D0052375E07B681B78042B01D076
:1023780001236FE0FDF76AFFF8607B681B891B0A81
:102388009BB2FB727B681B89BB727B685A68344BB3
:102398001B689A4204D0F868FDF75CFF642359E093
:1023A800FB7AFF2B12D02E4B1B6893F83630FA7A43
:1023B8009A4206D12A4B1B68BA7A1146184600F091
:1023C80053F8FB7A274A012142F823107B689B7A4D
:1023D800002B31D0002310220021786800F07EFE07
:1023E8000346BB727B681B8923F0FF039AB27B68A4
:1023F8001A817B681A89BB7A9BB213439AB27B68AD
:102408001A81BB7A174A52F823207B685A60FB7AF4
:10241800FF2B0AD0BA7AFB7A9A4206D8F868FDF7F9
:1024280019FF01F01FF9782314E0F868FDF712FF8F
:1024380001F018F900230DE07B681B8943F0FF03C6
:102448009AB27B681A817B6800225A60F868FDF7A7
:1024580001FF002318461037BD4680BD84210020A7
:1024680088210020082D002080B485B000AF786056
:102478000B46FB707B6893F83830FB73FB7BFA7B69
:102488003449895C7A6892F83920D243D2B20A403A
:10249800D1B2304AD154FB7B2E4AD35C002B0AD1EF
:1024A8007B6893F83A30DB43DAB22B4B1B78134046
:1024B800DAB2294B1A707B68FA7883F83620274AF3
:1024C800FB781370FB78DB08DBB203F00703DAB2A2
:1024D8007B6883F83820FB7803F00703DAB27B685F
:1024E80083F837207B6893F838301A4601239340E5
:1024F800DAB27B6883F83A207B6893F837301A465B
:1025080001239340DAB27B6883F839207B6893F81B
:102518003A20114B1B781343DAB20F4B1A707B68C1
:1025280093F8383019467B6893F838301A46094BC7
:102538009A5C7B6893F839301343DAB2054B5A54E6
:10254800FB7807497A6841F8232000BF1437BD4655
:1025580080BC70477821002074210020F01E0020E4
:10256800082D002080B584B000AF03463960FB8099
:102578000023FB601A4B1B78002B04D03B68102209
:102588001A70002327E0FDF761FEF860154B1B6801
:10259800BB60BB68002B17D0124B1B685B68114AE5
:1025A8001360BB6805221A70BB68FA881A81BB6879
:1025B80000225A60BB680C4ADA60F868FDF74AFEE8
:1025C8003B6800221A7005E0F868FDF743FE3B6897
:1025D80072221A70BB6818461037BD4680BD00BF0E
:1025E80084210020002D002018D1000880B586B075
:1025F80000AFF860B9607A6000237B61114B1B78EB
:10260800002B03D07B6812221A7017E0FDF71EFE1C
:102618007861FB681B78052B06D07869FDF71AFEF0
:102628007B6801221A7009E0FB68BA68DA60786989
:10263800FDF710FE7B6800221A7000BF1837BD46F0
:1026480080BD00BF8421002080B590B002AFF86043
:102658007B600B467B8113467B7200233B639E4B5A
:102668001B78002B04D03B6C02221A70002370E107
:102678009A4B1B78002B04D03B6C0D221A70002358
:1026880067E1FB681B78052B04D03B6C01221A70AC
:1026980000235EE17B7A23F07F0387F82F3097F8D9
:1026A8002F30002B07D07B7A03F07F037B72012346
:1026B80087F8373002E0002387F83730FDF7C6FD8A
:1026C80038637B7A032B00F2C98001A252F823F009
:1026D800A727000807280008E92600084927000856
:1026E800FB681A897B891340BB85BA8D7B899A421E
:1026F80018D197F83730012B08D1FB681A89BB8DA0
:10270800DB439BB213409AB2FB681A81744B1B6877
:10271800BA8D9A85386BFDF79DFD3B6C00221A70C7
:10272800BB8D16E1787A7A8907F114017B680093EA
:102738000346F86800F0FAF9386BFDF78BFD97E06F
:10274800FB681A897B891340BB85BB8D002B18D089
:1027580097F83730012B08D1FB681A89BB8DDB430A
:102768009BB213409AB2FB681A815D4B1B68BA8D05
:102778009A85386BFDF76EFD3B6C00221A70BB8D95
:10278800E7E0787A7A8907F114017B6800930346B9
:10279800F86800F0CBF9386BFDF75CFD68E0FB6882
:1027A8001B89DB439AB27B891340BB85BA8D7B8931
:1027B8009A4216D197F83730012B06D1FB681A894F
:1027C800BB8D13439AB2FB681A81454B1B68BA8DBF
:1027D8009A85386BFDF73EFD3B6C00221A70BB8D65
:1027E800B7E0787A7A8907F114017B680093034689
:1027F800F86800F09BF9386BFDF72CFD38E0FB68B2
:102808001B89DB439AB27B891340BB85BB8D002BA8
:1028180016D097F83730012B06D1FB681A89BB8D83
:1028280013439AB2FB681A812D4B1B68BA8D9A859F
:10283800386BFDF70FFD3B6C00221A70BB8D88E0EA
:10284800787A7A8907F114017B6800930346F8685F
:1028580000F06CF9386BFDF7FDFC09E0386BFDF70B
:10286800F9FC0023BB853B6C6F221A70BB8D70E0AE
:1028780000F0F8FEFDF7EAFC3863194B1B6893F883
:102888003530002B2ED0164B1B6893F8353087F85F
:102898002B30134B1B68002283F8352007F11403F3
:1028A800184600F045FA0E4B1B68002283F83420C6
:1028B800386BFDF7CFFC0023BB8597F82B30022B34
:1028C80003D13B6C0E221A7003E03B6C0A221A708B
:1028D80000BFBB8D3DE000BF84210020941E002076
:1028E800882100201D4B1B689B8DBB8597F83730CE
:1028F800012B27D17B7A032B1CD801A252F823F095
:102908002D2900082D29000819290008192900086F
:10291800FB681A89BB8DDB439BB213409AB2FB68F4
:102928001A810FE0FB681A89BB8D13439AB2FB68C2
:102938001A8107E0386BFDF78DFC3B6C6F221A702B
:10294800002306E0386BFDF785FC3B6C00221A700B
:10295800BB8D18463837BD4680BD00BF8821002092
:1029680080B58AB000AFF8607B600B467B81134668
:102978007B720023FB61FB681B78052B04D07B6806
:1029880001221A700023CDE0FDF760FCF8617B7A24
:10299800002B02D0012B0AD011E0FB681A897B8931
:1029A800DB439BB213409AB2FB681A810FE0FB68C5
:1029B8001A897B8913439AB2FB681A8107E0F86980
:1029C800FDF748FC7B6871221A700023AAE00023F7
:1029D80087F82330FB685B687B6289E07B6A9B7CB5
:1029E800032B73D801A252F823F000BF692A00080C
:1029F800A12A0008052A0008392A0008FB681A8954
:102A08007B6A1B8A13407B837B6A1B8A7A8B9A4278
:102A180064D17B8B00221946786A00F03BF90346A3
:102A28007B767B7E012B59D1012387F8233055E033
:102A3800FB681A897B6A1B8A13407B837B8B002B7C
:102A48004ED07B8B00221946786A00F023F90346A2
:102A58007B767B7E012B43D1012387F823303FE02F
:102A6800FB681B89DB439AB27B6A1B8A13407B8312
:102A78007B6A1B8A7A8B9A4234D17B8B0022194657
:102A8800786A00F007F903467B767B7E012B29D113
:102A9800012387F8233025E0FB681B89DB439AB2C2
:102AA8007B6A1B8A13407B837B8B002B1CD07B8B20
:102AB80000221946786A00F0EDF803467B767B7EA3
:102AC800012B11D1012387F823300DE0F869FDF7B8
:102AD800C1FB7B686F221A70002323E000BF04E06B
:102AE80000BF02E000BF00E000BF7B6A1B687B629A
:102AF8007B6A002B7FF472AFF869FDF7ABFB97F8A0
:102B08002330012B01D100F0ADFDFDF79FFBF861EB
:102B1800FB681B89FB82F869FDF79CFB7B68002238
:102B28001A70FB8A18462837BD4680BD80B487B026
:102B380000AFF860B96011461A460B46FB80134691
:102B48007B71304B1B682F4A126892F8342042F090
:102B58002002D2B283F834202A4B1B68002283F863
:102B68003520284B1B683A6A1A63264B1B68BA68DB
:102B78009A62BB68FA881A82BB687A799A74214B80
:102B88001A68BB689A60FB685A68BB681A60BB68B9
:102B980000225A60BB68FA68DA60FB685B687B6190
:102BA8007B69002B02D07B69BA685A60FB68BA68F7
:102BB8005A60144B1B6893F83830FB74FB7CFA7C22
:102BC8001149895C0F4A126892F83920D243D2B26F
:102BD8000A40D1B20C4AD154FB7C0B4AD35C002B7F
:102BE8000BD1084B1B6893F83A30DB43DAB2074B3A
:102BF8001B781340DAB2054B1A7000BF1C37BD466C
:102C080080BC704788210020782100207421002092
:102C180080B584B000AF50211B4800F00BFD0023A5
:102C2800FB8118E0FB890133BB81FB891B01164A34
:102C38001344BB60BB891B01134A13447B60BB6808
:102C480000221A70BB687A685A60BB680F4ADA605B
:102C5800FB890133FB81FB89032BE3D9FB891B012A
:102C6800094A1344BB60BB6800221A70BB68002283
:102C78005A60BB68054ADA60054B034A1A6000BF10
:102C88001037BD4680BD00BFA01E002018D1000827
:102C9800002D002080B584B000AF78600B467B80A3
:102CA80013467B707B689B68BB60BB6800221A6315
:102CB800BB687A889A85BB6893F8343023F0200380
:102CC800DAB2BB6883F83420BB687A7883F8352099
:102CD800BB6893F83430002B1CD1BB6893F83A20BA
:102CE800114B1B781343DAB20F4B1A70BB6893F879
:102CF80038301946BB6893F838301A460B4B9A5C43
:102D0800BB6893F839301343DAB2084B5A5401239D
:102D1800FB7301E00023FB73786800F009F8FB7B84
:102D280018461037BD4680BD742100207821002048
:102D380080B487B000AF78607B685B687B617B6834
:102D48001B683B617B69002B0CD17B68DB68FB60EF
:102D5800FB683A695A603B69002B0CD03B6900223A
:102D68005A6008E07B693A691A603B69002B02D017
:102D78003B697A695A607B689B68BB60BB680022C4
:102D88009A6200BF1C37BD4680BC704780B586B0CC
:102D980000AFF860B9607A6000237B61104B1B7844
:102DA800002B03D07B6812221A7015E0FB681B7891
:102DB800013B032B03D97B6801221A700CE000BF8A
:102DC800FDF744FA7861FB68BA685A617869FDF7DB
:102DD80041FA7B6800221A701837BD4680BD00BFD3
:102DE8008421002080B500AF00F0F8FE00F01AFB47
:102DF80000F056FB00F0D0FB00F0C8FAFFF708FF20
:102E0800FFF75AF800F07CFB00F0A0FB00F010FF81
:102E180000F024FE00BF80BD80B400AF084B1B78D3
:102E2800012B09D1074B1B78FF2B05D0054B1B78CD
:102E38000133DAB2034B1A7000BFBD4680BC70473D
:102E4800961E00208421002080B582B000AF0023A8
:102E58007B601E4B1B78012B33D1FDF7F7F97860A7
:102E68001B4B1B78002B05D0194B1B78013BDAB2A2
:102E7800174B1A70164B1B78002B1FD1154B1B785C
:102E8800002B1BD100F030FC134B1B781A46134B58
:102E980053F82230124A13600F4B1A78114B1B78E3
:102EA8009A420BD00E4B1B68DA6B0132DA630E4B79
:102EB8001B6801330C4A1360FDF714FA7868FDF7B4
:102EC800C9F900BF0837BD4680BD00BF961E002067
:102ED80084210020941E00209C1E0020082D002024
:102EE8006C210020F01E0020FC20002080B500AFDF
:102EF8000C4B1B78002B13D100F0F6FB0A4B1A7809
:102F08000A4B1A70084B1B781A46094B53F82230A3
:102F1800084A1360074B1B68074A1360FDF79DF9C1
:102F280000BF80BD961E00209C1E0020F01E0020C1
:102F3800082D00206C2100208821002080B582B057
:102F480000AF00237B600220FEF7F2F9FDF77EF95F
:102F580078600D4B00221A607868FDF77BF96420D1
:102F6800FEF7E6F9FDF772F97860074B1B68074A28
:102F78001360074B01221A707868FDF76BF900BFE0
:102F88000837BD4680BD00BF981E002000210020E4
:102F9800042D002080B584B000AF00237B6000F0D2
:102FA80019FFFDF753F97860434B1B680133424A18
:102FB80013607868FDF74EF9404B1B78012B77D1E9
:102FC8003F4B1B78012B06D0022B07D0002B0BD1CF
:102FD8000123FB720EE00023FB720BE00123FB725E
:102FE800374B01221A7005E00123FB72344B002293
:102FF8001A7000BFFB7A002B59D0324B1B68FB605C
:103008004FE0FDF723F97860FB681B6B002B42D07B
:10301800FB681B6B5A1EFB681A63FB681B6B002B53
:1030280039D1FB6893F8343003F03703002B0DD007
:10303800FB6893F8343023F03703DAB2FB6883F87F
:103048003420FB68012283F8352003E0FB68002266
:1030580083F83520FB6893F8343003F00803002B1D
:1030680019D1FB6893F83A20174B1B781343DAB24F
:10307800154B1A70FB6893F838301946FB6893F8BB
:1030880038301A46114B9A5CFB6893F83930134371
:10309800DAB20E4B5A54FB685B69FB607868FDF73F
:1030A800D9F8FB6893F836303F2BAAD100E000BF6F
:1030B8001037BD4680BD00BF8C210020961E002021
:1030C800F81E0020F41E0020742100207821002022
:1030D80080B400AF00BFBD4680BC704780B586B0E5
:1030E80000AFF860B96011461A460B46FB711346EB
:1030F800BB71FB689B7A1A462D4B9B5CFB75FB7D6D
:10310800FA681344DB7A1A46294B9B5CBB75FB7D36
:10311800DB00DAB2BB7D13447B757B7D254A52F810
:1031280023303B613B6900221A633B69BA685A62E3
:103138003B6993F83420FB79DB43DBB21340DAB206
:103148003B6983F834203B69BA7983F835203B69B9
:1031580093F8343003F00803002B13D13B6993F83C
:103168003A20154B1B781343DAB2134B1A70FB7DC8
:10317800FA7D1249895C3A6992F839200A43D1B23A
:103188000E4AD154F968386900F072F83B691B6A35
:10319800002B08D03B691B6A1946386900F09AF879
:1031A8003B69FA68DA617B7D18461837BD4680BDF1
:1031B800BCD20008082D00207421002078210020AE
:1031C80080B485B000AF7860264B1B687A68DA61F6
:1031D800244B1B6893F838301946224B1B6893F828
:1031E80038301A467B681344DA7A1E4B1B6893F80A
:1031F80039301343DAB27B680B44DA727B689A7A07
:10320800184B1B6893F83A301343DAB27B689A720A
:10321800144B1B6893F83830FB73FB7BFA7B12491D
:10322800895C104A126892F83920D243D2B20A4017
:10323800D1B20D4AD154FB7B0B4AD35C002B0BD186
:10324800084B1B6893F83A30DB43DAB2074B1B781C
:103258001340DAB2054B1A7000BF1437BD4680BC64
:10326800704700BF882100207821002074210020A9
:1032780080B485B000AF786039607B6893F83830E7
:10328800FB73FB7BFA7B39680A44D17A7A6892F837
:103298003920D243D2B20A40D1B23A6813440A461E
:1032A800DA72FB7B3A681344DB7A002B0AD13B685D
:1032B8009A7A7B6893F83A30DB43DBB21340DAB290
:1032C8003B689A727B680022DA6100BF1437BD46FA
:1032D80080BC704780B487B000AF786039607B6885
:1032E80093F83830FB737B6893F83A30BB737B688C
:1032F80093F839307B733B687B617B691B683B6162
:1033080022E0FB7BFA7B39690A44D17A7A7BD24383
:10331800D2B20A40D1B23A6913440A46DA72FB7B48
:103328003A691344DB7A002B08D13B699A7ABB7B54
:10333800DB43DBB21340DAB23B699A727B69043330
:103348007B617B691B683B613B69002BD9D100BF5E
:103358001C37BD4680BC704780B485B000AF78602C
:103368007B6800229A720023FB7307E0FB7B7A6874
:1033780013440022DA72FB7B0133FB73FB7B072BC0
:10338800F4D900BF1437BD4680BC704780B584B0FF
:1033980000AF4FF4F071204800F04CF90023FB8196
:1033A8001EE0FB890133BB81FA8913465B00134495
:1033B800DB00194A1344BB60BA8913465B00134407
:1033C800DB00154A13447B60BB6800221A70BB6897
:1033D8007A685A60BB68114A5A61FB890133FB81DC
:1033E800FB89122BDDD9FA8913465B001344DB00F5
:1033F800094A1344BB60BB6800221A70BB680022EC
:103408005A60BB68054A5A61054B034A1A6000BFF7
:103418001037BD4680BD00BF902300201CD1000896
:103428008021002080B400AF124B00221A60124B9A
:1034380000221A70114B00221A70114B00221A70C8
:10344800104B00221A70104B00221A600F4B0022FA
:103458001A600F4B00221A600E4B00221A600E4BA6
:1034680000221A700D4B00221A7000BFBD4680BCA6
:10347800704700BF8C21002084210020941E00206A
:1034880009210020961E0020FC200020981E002004
:10349800082E002000210020042D0020951E002069
:1034A80080B483B000AF104B00221A700023FB7168
:1034B80006E0FB790D4A0021D154FB790133FB71F9
:1034C800FB79072BF5D90A4B00221A70094B002209
:1034D8001A70094B00221A60084B00221A6000BFBC
:1034E8000C37BD4680BC704774210020782100202D
:1034F800F01E00209C1E00206C2100208821002046
:1035080080B588B006AF0323049300230393802378
:1035180002930A4B01934FF6FF7300933F23084A27
:1035280000210848FDF7B2FFFB1D1A4606493F2057
:10353800FEF700F900BF0837BD4680BD9021002086
:103548008C2300203937000820D1000880B588B0C6
:1035580006AF0323049300230393802302930A4BAB
:1035680001934FF6FE7300933E23084A0021084852
:10357800FDF78CFFFB1D1A4606493E20FEF7DAF8D8
:1035880000BF0837BD4680BDFC1E0020F820002083
:103598006537000830D1000880B584B000AF4FF41B
:1035A800F2611F4800F046F84FF480711D4800F0A2
:1035B80041F80023FB7319E0FB7B0133BB73FB7BF2
:1035C800582202FB03F3164A1344BB60BB7B582204
:1035D80002FB03F3124A13447B60BB687A685A61A2
:1035E800BB68114A1A65FB7B0133FB73FB7B142B09
:1035F800E2D9FB7B582202FB03F3094A1344BB6060
:10360800BB6800225A61BB68074A1A65074B00224B
:103618001A60074B024A1A6000BF1037BD4680BDCA
:1036280070250020082D00201CD10008F41E002061
:103638000421002080B483B000AF78600B467B8003
:1036480007E07B685A1C7A6000221A707B88013B6D
:103658007B807B88002BF4D100BF0C37BD4680BC33
:10366800704700BF80B582B000AF00237B60FCF7D5
:10367800EDFD7860154B1B78002B1FD1144B1B7880
:10368800002B1BD100F030F8124B1B781A46124B56
:1036980053F82230114A13600E4B1A78104B1B78DE
:1036A8009A420BD00D4B1B68DA6B0132DA630D4B73
:1036B8001B6801330B4A1360FCF70FFE7868FCF7B0
:1036C800C9FD00BF0837BD4680BD00BF842100206A
:1036D800941E00209C1E0020082D00206C21002034
:1036E800F01E0020FC20002080B483B000AF0C4BFB
:1036F8001B781A460B4B9B5CFB71FB79DB00DAB23B
:10370800FB790949CB5C1946064B5B5C1344DAB27A
:10371800064B1A7000BF0C37BD4680BC704700BF0F
:1037280074210020BCD20008782100209C1E0020B3
:1037380080B584B000AF78600023FB60FCF786FD9D
:10374800F860054B1B680133034A1360F868FCF7FF
:1037580081FD00F08BFAF1E7981E002080B584B057
:1037680000AF78600023FB6002E0C820FDF7E0FDB1
:10377800214B1B78002BF8D0204B1B68204AA2FB5A
:1037880003235B091D4A13601C4B1B68002B05D1E2
:103798001C4B00221A70FF20FEF774F8FCF756FD48
:1037A800F860164B1B68642202FB03F3164A136089
:1037B800F868FCF74FFDFCF749FDF860124B1B68F1
:1037C800124A1360104B00221A60F868FCF742FD99
:1037D8000E4B1A68094B1B68B2FBF3F3DBB2C3F15B
:1037E8006403DAB2074B1A7000F052FA00F010F8CE
:1037F8006420FDF79DFDDEE7042D00200021002058
:103808001F85EB5108210020981E0020082E00205B
:1038180080B584B000AF0023FB7323E03A46FB7BFE
:1038280011461846FDF7CEFF0346BB73BB7B002B42
:1038380015D1FB7B0F4A52F82330BB60BB68002BC5
:103848000DD0BB68012B0AD0BB689A68BB68DB68DF
:103858009B001A44BB689A647A68BB68DA64FB7B8D
:103868000133FB73FB7B3F2BD8D900BF1037BD4614
:1038780080BD00BF082D002080B588B000AFB960BA
:103888007A601A460346FB731346BB810023BB616B
:10389800FCF7DCFCB8616A4B1B687B617B69002B19
:1038A80000F0C6807B695B69654A1360B869FCF7FC
:1038B800D1FC7B69BA681A607B69FA7B83F8362089
:1038C8007B69002283F834207B69002283F8352045
:1038D8007B6900221A637B69FA6A5A607B69BA6A53
:1038E800DA607B697A689A607B693A8E1A827B69AA
:1038F800BA895A827B69002283F83B20FB7BDB086C
:10390800DAB27B6983F83820FB7B03F00703DAB26D
:103918007B6983F837207B6993F838301A4601238E
:103928009340DAB27B6983F83A207B6993F83730A1
:103938001A4601239340DAB27B6983F839207B6900
:103948000022DA617B6900221A627B6900229A628E
:103958007B6900225A627B690022DA637B69002254
:103968005A647B6900221A647B6900229A647B6925
:103978000022DA647B69334A1A650023FB7709E081
:10398800FB7F7A6914339B00134400225A60FB7F43
:103998000133FB77FB7F002BF2D0786900F00EFA39
:1039A800FCF754FCB861FB7B27497A6941F823206E
:1039B800B869FCF74FFC786900F040F9FCF746FC61
:1039C800B861224B1A687B695A617B6900229A6147
:1039D8001E4B1B68002B03D01C4B1B687A699A612D
:1039E8001A4A7B6913607B6993F83A20184B1B7855
:1039F8001343DAB2164B1A707B6993F838301946BC
:103A08007B6993F838301A46124B9A5C7B6993F8B5
:103A180039301343DAB20F4B5A540F4B1B7801332A
:103A2800DAB20D4B1A70B869FCF714FC002303E0F6
:103A3800B869FCF70FFC422318462037BD4680BD05
:103A4800042100201CD10008082D0020F41E0020AD
:103A580074210020782100200921002080B483B03F
:103A680000AF304B7B60304B7B60304B7B60304B22
:103A78007B60304B7B60304B7B60304B7B60304BE6
:103A88007B60304B7B60304B7B60304B7B60304BD6
:103A98007B60304B7B60304B7B60304B7B60304BC6
:103AA8007B60304B7B60304B7B60304B7B60304BB6
:103AB8007B60304B7B60304B7B60304B7B60304BA6
:103AC8007B60304B7B60304B7B60304B7B60304B96
:103AD8007B60304B7B60304B7B60304B7B60304B86
:103AE8007B60304B7B60304B7B60304B7B60304B76
:103AF8007B60304B7B60304B7B60304B7B60304B66
:103B08007B60304B7B60304B7B60304B7B60304B55
:103B18007B60304B7B60304B7B6000BF0C37BD4611
:103B280080BC7047BCD30008C0D30008C6D30008C7
:103B3800C8D30008C4D30008CAD30008CCD30008EF
:103B4800CED30008D0D30008D2D30008D4D30008BD
:103B5800D6D30008D8D30008DAD30008DCD300088D
:103B6800DED30008E0D30008E2D30008E4D300085D
:103B7800E6D30008E8D30008EAD30008ECD300082D
:103B8800EED30008F0D30008F2D30008F4D30008FD
:103B9800F6D30008F8D30008FAD30008FCD30008CD
:103BA800FED3000800D4000802D4000804D400089A
:103BB80006D4000808D400080AD400080CD4000869
:103BC8000ED4000810D4000812D4000814D4000839
:103BD80016D4000818D400081AD4000880B483B09A
:103BE80000AF104B3B604FF480737B6007E07B684D
:103BF800013B7B603B681A1D3A6000221A607B68B3
:103C0800002BF4D1084B094A1A60074B1B6823F0B4
:103C180007031A46044B1A6000BF0C37BD4680BC28
:103C2800704700BF102E00200C2E002010320020FC
:103C380080B400AF00BFBD4680BC704780B582B07D
:103C480000AF7860786803F071FC00BF0837BD46A4
:103C580080BD00BF80B582B000AF7860786803F09F
:103C68006FFC00BF0837BD4680BD00BF80B500AF00
:103C780003F070FC00BF80BD80B582B000AF7860F3
:103C8800786803F073FC00BF0837BD4680BD00BFED
:103C980080B500AF03F064FC00BF80BD80B487B07E
:103CA80000AFF860B9607A607B807B6804337B6121
:103CB8007B6923F007037B617B69043B7B617B693C
:103CC8004FF080721A607B69043B7B61FA687B69FC
:103CD8001A607B69043B7B61344A7B691A607B69A3
:103CE800043B7B617B694FF012321A607B69043BAD
:103CF8007B617B694FF003321A607B69043B7B610F
:103D08007B694FF002321A607B69043B7B617B69F7
:103D18004FF001321A607B69043B7B61BA687B69AA
:103D28001A607B69043B7B617B696FF002021A6051
:103D38007B69043B7B617B694FF011321A607B69B8
:103D4800043B7B617B694FF010321A607B69043B4E
:103D58007B617B694FF009321A607B69043B7B61A8
:103D68007B694FF008321A607B69043B7B617B6991
:103D78004FF007321A607B69043B7B617B694FF027
:103D880006321A607B69043B7B617B694FF0053220
:103D98001A607B69043B7B617B694FF004321A60CF
:103DA8007B6918461C37BD4680BC704779190008E6
:103DB80080B500AF03F0E4FB00BF80BD80B582B0E2
:103DC80000AF7860786803F0E1FB00BF0837BD46B4
:103DD80080BD00BF80B500AF03F0E2FB00BF80BD2F
:103DE80080B582B000AFFCF731FA7860FFF714F8BD
:103DF8007868FCF72FFAFFF7CDF8FFF725F800BF32
:103E08000837BD4680BD00BF80B584B000AF78607C
:103E18007B68064AA2FB03239B09FB60F86800F055
:103E280007F800BF1037BD4680BD00BFD34D6210F4
:103E380080B485B000AF78600F4A7B68013B13609F
:103E48000E4B1B68FB60FB6823F07F43FB600B4A4B
:103E5800FB6813600A4A0A4B1B6843F005031360AA
:103E6800074A074B1B6843F00203136000BF14376F
:103E7800BD4680BC704700BF14E000E020ED00E0C4
:103E880010E000E080B584B002AF0D4B00221A604C
:103E98000C4B7B60BB1C0193012300934FF48063A0
:103EA8007A680949094800F07BF87B8842F2107269
:103EB800934201D000F01EF900BF0837BD4680BD0F
:103EC80024320020283200201032002040D100087F
:103ED80080B582B000AF786039603A6800217868B0
:103EE80000F004F800BF0837BD4680BD80B48BB031
:103EF80000AFF8600B467A60FB7200233B62002338
:103F08007B6109E03B6A1B023B62FB7A3A6A134316
:103F18003B627B6901337B617B69032BF2D97B6848
:103F28007B62FB68DBB203F003033B61FB68BB61A8
:103F38003B69002B13D03B697B610AE0BB695A1CC3
:103F4800BA61FA7A1A707B6A013B7B627B6901333A
:103F58007B617B6A002B02D07B69032BEED9BB699E
:103F6800FB6107E0FB691A1DFA613A6A1A607B6A0D
:103F7800043B7B627B6A032BF4D8FB69BB6107E0D7
:103F8800BB695A1CBA61FA7A1A707B6A013B7B6278
:103F98007B6A002BF4D100BF2C37BD4680BC70472C
:103FA80080B588B002AFF860B9607A603B600023E2
:103FB8007B61FCF7CBF9786100F0FAF83B68009375
:103FC8003B6A7A68B968F86800F00EF800F010F9F2
:103FD8007869FCF7BFF97B6A42F210721A8000BF59
:103FE8001837BD4680BD00BF80B485B000AFF8600B
:103FF800B9607A603B60BB687A681A60BA697B68A6
:1040080013445A1EBB685A60BB687A689A60074BAB
:104018001A68BB68DA60BB683A681A61034ABB6809
:10402800136000BF1437BD4680BC7047243200209F
:1040380080B500AF012000F003F800BF80BD00BFCD
:1040480080B584B000AF78600023FB60FCF77EF990
:10405800F86000F0ADF8064A7B68136000F0C8F815
:10406800F868FCF777F900BF1037BD4680BD00BF80
:104078002836002080B584B000AF0023FB60FCF731
:1040880065F9F86000F094F8094B1B68BB60B868E4
:1040980000F010F87860064A7B68136000F0A8F812
:1040A800F868FCF757F97B6818461037BD4680BD9D
:1040B8002836002080B485B000AF78607B68074A56
:1040C80002FB03F303F54053393323F00043FB604D
:1040D800FB6818461437BD4680BC70476D4EC64114
:1040E80080B500AF00F0C0F800F0CAF800F0B6F8EC
:1040F80000BF80BD80B400AFFEE700BF80B582B0CE
:1041080000AF00237B60FCF721F9786000F050F8DD
:1041180010210648FFF7DCFE00F06AF87868FCF723
:1041280019F900BF0837BD4680BD00BF4C360020D6
:1041380080B483B000AF7860034A7B68136000BF27
:104148000C37BD4680BC70473036002080B582B041
:1041580000AF00237B6000F011F83860FCF7F6F838
:104168007860054B00221A607868FCF7F3F83B6822
:1041780018460837BD4680BD4036002080B584B05B
:1041880000AF0023FB60FCF7E1F8F860074B1B6801
:10419800BB60F868FCF7DEF8B86800F0C3F8786030
:1041A8007B6818461037BD4680BD00BF40360020EA
:1041B80080B500AF0B4B1B8801339AB2094B1A80AC
:1041C800094B1B88002B04D102F006FB0246074B63
:1041D8001A60054B1B8801339AB2034B1A8000BF43
:1041E80080BD00BF44360020383600203436002019
:1041F80080B582B000AF144B1B88013B9AB2124BBA
:104208001A80114B1B88002B1AD102F0E5FA0246DE
:104218000E4B1A600D4B1A680D4B1B68D31A7B6046
:104228000C4B1A687B689A4202D20A4A7B68136070
:10423800094B1A687B689A4202D2074A7B68136066
:1042480000BF0837BD4680BD383600203C36002008
:1042580034360020403600202C36002080B500AFD0
:10426800FFF74CFF00BF80BD80B500AF034B0022B5
:104278001A6002F077FA00BF80BD00BF3036002018
:1042880080B584B000AF00237B601F4B00221A80EA
:104298001E4B00221A801E4B00221A601D4B002262
:1042A8001A601D4B00221A601C4B00221A601C4B1E
:1042B80000221A600023FB60FCF748F878600023AE
:1042C8007B810EE0144B00221A60FFF771FFFFF7A5
:1042D8008FFF114B1B68FA681344FB607B8901331D
:1042E8007B817B89002BEDD00D4AFB6813600A4B5C
:1042F80000221A60094B00221A607868FCF72AF835
:1043080000BF1037BD4680BD443600203836002037
:10431800343600203C360020403600202C36002061
:104328004836002080B485B000AF78607B68FB60B9
:10433800094B1B68FA689A4205D9074B1B68FA684B
:10434800D31AFB6001E00023FB60FB6818461437B2
:10435800BD4680BC704700BF4836002090B482B08C
:1043680000AF78607B685A1C084B82FB0334131932
:104378009911D317C91A0B46DB015B1AD11A0B46E0
:1043880018460837BD4690BC704700BF0904028133
:1043980090B482B000AF78607B6803F17E02084B6E
:1043A80082FB033413199911D317C91A0B46DB0181
:1043B8005B1AD11A0B4618460837BD4690BC7047A1
:1043C8000904028180B500AF094B1B881846FFF726
:1043D800DFFF03469AB2064B1A80082002F094FACF
:1043E800202002F091FA082002F08EFA00BF80BD6A
:1043F800F601002090B583B000AF614B1A88614B7D
:104408001B889A4240F0B88002F0A4FA0346FB7178
:1044180097F907300D2B1BD15A4B1B881A465A4B5C
:104428000A219954574B1B881846FFF797FF0346F4
:104438009AB2544B1A80534B1B881A46524B002190
:1044480099540D2002F060FA0A2002F05DFA94E017
:1044580097F90730082B03D097F907307F2B19D12C
:10446800484B1B881A46464B1B88D21A474B82FB7F
:10447800033413199911D317C91A0B46DB015B1AB8
:10448800D11A002903D1072002F03EFA73E0FFF7A2
:1044980099FF70E097F90730172B27D101E0FFF754
:1044A80091FF384B1B881A46354B1B88D21A374B5D
:1044B80082FB033413199911D317C91A0B46DB0170
:1044C8005B1AD11A00299FDD03F0ACF802462D4B88
:1044D8001B8819462C4B5B560133134493F9003063
:1044E800DBB203F00803002BD9D08DE797F907302A
:1044F800152B16D101E0FFF765FF224B1B881A46E2
:104508001F4B1B88D21A214B82FB033413199911B4
:10451800D317C91A0B46DB015B1AD11A0029EADC4A
:1045280072E7184B1B881A46154B1B88D21A174B73
:1045380082FB033413199911D317C91A0B46DB01EF
:104548005B1AD11A7E2903D1072002F0DDF95BE757
:104558000C4B1B8819460C4AFB795354094B1B8892
:104568001846FFF7FBFE03469AB2064B1A80FB7902
:10457800184602F0C9F947E700BF0C37BD4690BDA1
:10458800F4010020F6010020F8010020090402814E
:1045980080B586B000AFF860B9607A6000237B61AF
:1045A800FB68022B16DD4FF0FF331DE07B68DBB2A2
:1045B8001946B86802F0BAF9BB6893F900300A2BBB
:1045C80002D10D2002F0A0F97B6901337B61BB6841
:1045D8000133BB60BB6893F90030002B03D07A69C4
:1045E8007B689A42E2DB7B6918461837BD4680BD76
:1045F80090B587B000AFF860B9607A60FB68022BAD
:1046080002DD4FF0FF3333E0FFF7F4FE00237B6158
:1046180017E0BB685A1CBA60174A12881146174A35
:1046280052561A70144B1B881846FFF797FE03461C
:104638009AB2114B1A807B6901337B617B68013B1D
:104648007B600F4B1B881A460B4B1B88D21A0D4BED
:1046580082FB033413199911D317C91A0B46DB01CE
:104668005B1AD11A002902DD7B68002BD1DC7B693B
:1046780018461C37BD4690BDF4010020F801002003
:10468800F60100200904028180B582B000AF78608D
:1046980002F08CFF0246582313604FF0FF33184690
:1046A8000837BD4680BD00BF80B582B000AF7860D6
:1046B800396002F07BFF0246582313604FF0FF3346
:1046C80018460837BD4680BD80B582B000AF786017
:1046D80002F06CFF0246582313600023184608377F
:1046E800BD4680BD80B584B000AFF860B9607A601F
:1046F80002F05CFF0246582313604FF0FF33184660
:104708001037BD4680BD00BF80B584B000AF78606B
:10471800144B1B68002B02D1124B134A1A60114B21
:104728001B68FB607B68033323F003037B600D4B3E
:104738001A687B6813440D4A934207D902F036FF82
:1047480002460C2313604FF0FF3306E0054B1A684E
:104758007B681344034A1360FB6818461037BD464C
:1047680080BD00BF78020020D4360020D438002055
:1047780080B582B000AF78607B68002B01D101233F
:1047880043E07B6893F86930DBB2002B06D17B6885
:10479800002283F86820786802F0EEF87B6824220B
:1047A80083F869207B681B687A681268126822F0AF
:1047B80001021A60786800F091FC0346012B01D1D0
:1047C800012322E07B685B6A002B02D0786800F046
:1047D800F3FE7B681B687A681268526822F490427C
:1047E8005A607B681B687A681268926822F02A020D
:1047F8009A607B681B687A681268126842F0010246
:104808001A60786800F07AFF034618460837BD46F4
:1048180080BD00BF80B588B002AFF860B9603B606A
:104828001346FB8000237B61FB6893F86930DBB299
:10483800202B75D1BB68002B02D0FB88002B01D13F
:1048480001236EE0FB6893F86830012B01D1022345
:1048580067E0FB68012283F86820FB680022DA66BB
:10486800FB68212283F8692001F0DEFF7861FB688C
:10487800FA88A3F85020FB68FA88A3F8522032E09F
:10488800FB68B3F852309BB2013B9AB2FB68A3F8BD
:1048980052203B6800937B6900228021F86800F071
:1048A80093FA0346002B01D003233AE0FB689B6888
:1048B800B3F5805F10D1FB681B69002B0CD1BB6876
:1048C8003B61FB681B683A691288C2F308029A6266
:1048D800BB680233BB6006E0FB681A68BB68591CFA
:1048E800B9601B789362FB68B3F852309BB2002B17
:1048F800C6D13B6800937B6900224021F86800F02C
:1049080063FA0346002B01D003230AE0FB68202248
:1049180083F86920FB68002283F86820002300E000
:10492800022318461837BD4680BD00BF80B58AB03F
:1049380002AFF860B9603B601346FB800023FB615F
:10494800FB6893F86A30DBB2202B40F0AC80BB6880
:10495800002B02D0FB88002B01D10123A4E0FB68C7
:1049680093F86830012B01D102239DE0FB680122F6
:1049780083F86820FB680022DA66FB68222283F845
:104988006A2001F051FFF861FB68FA88A3F8582003
:10499800FB68FA88A3F85A20FB689B68B3F5805F28
:1049A8000ED1FB681B69002B05D1FB6840F2FF1292
:1049B800A3F85C2028E0FB68FF22A3F85C2023E032
:1049C800FB689B68002B0DD1FB681B69002B04D189
:1049D800FB68FF22A3F85C2016E0FB687F22A3F89F
:1049E8005C2011E0FB689B68B3F1805F0CD1FB6829
:1049F8001B69002B04D1FB687F22A3F85C2003E02D
:104A0800FB683F22A3F85C20FB68B3F85C307B832B
:104A180039E0FB68B3F85A309BB2013B9AB2FB68A5
:104A2800A3F85A203B680093FB6900222021F8680C
:104A380000F0CAF90346002B01D0032334E0FB68D9
:104A48009B68B3F5805F12D1FB681B69002B0ED100
:104A5800BB687B61FB681B685B6A9AB27B8B1340FF
:104A68009AB27B691A80BB680233BB600BE0BB68F3
:104A78005A1CBA60FA681268526AD1B27A8BD2B2FA
:104A88000A40D2B21A70FB68B3F85A309BB2002BB6
:104A9800BFD1FB68202283F86A20FB68002283F8D4
:104AA8006820002300E0022318462037BD4680BD59
:104AB80080B485B000AFF860B9601346FB80FB682E
:104AC80093F86A30DBB2202B72D1BB68002B02D07E
:104AD800FB88002B01D101236BE0FB6893F8683059
:104AE800012B01D1022364E0FB68012283F86820CE
:104AF800FB68BA685A65FB68FA88A3F85820FB680F
:104B0800FA88A3F85A20FB689B68B3F5805F0ED13A
:104B1800FB681B69002B05D1FB6840F2FF12A3F864
:104B28005C2028E0FB68FF22A3F85C2023E0FB68F8
:104B38009B68002B0DD1FB681B69002B04D1FB6817
:104B4800FF22A3F85C2016E0FB687F22A3F85C2014
:104B580011E0FB689B68B3F1805F0CD1FB681B69AF
:104B6800002B04D1FB687F22A3F85C2003E0FB68DC
:104B78003F22A3F85C20FB680022DA66FB68222249
:104B880083F86A20FB68002283F86820FB681B68AA
:104B9800FA681268926842F001029A60FB681B6822
:104BA800FA681268126842F490721A60002300E0F2
:104BB800022318461437BD4680BC704780B586B0BE
:104BC80000AF78607B681B68DB697B617B681B686A
:104BD8001B683B617B681B689B68FB607B6903F013
:104BE8000F03BB60BB68002B0DD17B6903F020036A
:104BF800002B08D03B6903F02003002B03D0786812
:104C080000F0C4F9DAE0BB68002B00F0B980FB685B
:104C180003F00103002B05D13B6903F49073002BCB
:104C280000F0AE807B6903F00103002B0ED03B69D6
:104C380003F48073002B09D07B681B6801221A6279
:104C48007B68DB6E43F001027B68DA667B6903F000
:104C58000203002B0ED0FB6803F00103002B09D0E0
:104C68007B681B6802221A627B68DB6E43F00402D1
:104C78007B68DA667B6903F00403002B0ED0FB68BF
:104C880003F00103002B09D07B681B6804221A6219
:104C98007B68DB6E43F002027B68DA667B6903F0AF
:104CA8000803002B13D03B6903F02003002B04D129
:104CB800FB6803F00103002B09D07B681B680822FE
:104CC8001A627B68DB6E43F008027B68DA667B68F1
:104CD800DB6E002B71D07B6903F02003002B07D01B
:104CE8003B6903F02003002B02D0786800F04EF9EE
:104CF8007B68DB6E03F00803002B06D17B681B681A
:104D08009B6803F04003002B31D0786800F0AAF9C3
:104D18007B681B689B6803F04003002B23D07B68EB
:104D28001B687A681268926822F040029A607B6871
:104D38005B6E002B13D07B685B6E224A1A657B681A
:104D48005B6E184601F09EFB0346002B16D07B686D
:104D58005B6E1B6D7A68526E104698470EE0786855
:104D680000F09CF80AE0786800F098F806E07868A7
:104D780000F094F87B680022DA661EE000BF1CE0B1
:104D88007B6903F08003002B08D03B6903F08003A4
:104D9800002B03D0786800F08BF80FE07B6903F0F4
:104DA8004003002B0AD03B6903F04003002B05D0D9
:104DB800786800F0D3F800BF00E000BF1837BD46A0
:104DC80080BD00BF654E000880B584B000AFF860B4
:104DD800B9603B601346FB712CE0BB69B3F1FF3F40
:104DE80028D0BB69002B07D001F01EFD02463B68A6
:104DF800D21ABB699A421DD3FB681B68FA6812680D
:104E0800126822F4D0721A60FB681B68FA6812688C
:104E1800926822F001029A60FB68202283F86920D8
:104E2800FB68202283F86A20FB68002283F8682048
:104E380003230FE0FB681B68DA69BB681A40BB688C
:104E48009A420CBF01230023DBB21A46FB799A422F
:104E5800C3D0002318461037BD4680BD80B584B046
:104E680000AF78607B689B6BFB60FB680022A3F84F
:104E78005A20FB680022A3F85220F86800F00EF8C8
:104E880000BF1037BD4680BD80B483B000AF7860E6
:104E980000BF0C37BD4680BC704700BF80B483B0EC
:104EA80000AF786000BF0C37BD4680BC704700BFBC
:104EB80080B485B000AF78607B6893F86930DBB266
:104EC800212B44D17B68B3F852309BB2002B11D10F
:104ED8007B681B687A681268126822F080021A6080
:104EE8007B681B687A681268126842F040021A6090
:104EF80000232DE07B689B68B3F5805F13D17B6846
:104F08001B69002B0FD17B68DB6CFB607B681B681F
:104F1800FA681288C2F308029A627B68DB6C9A1CF2
:104F28007B68DA6408E07B681A687B68DB6C581C6D
:104F38007968C8641B7893627B68B3F852309BB277
:104F4800013B9AB27B68A3F85220002300E00223B9
:104F580018461437BD4680BC704700BF80B582B084
:104F680000AF78607B681B687A681268126822F064
:104F780040021A607B68202283F869207868FFF76E
:104F880083FF002318460837BD4680BD80B584B02E
:104F980000AF78607B68B3F85C30FB817B6893F87E
:104FA8006A30DBB2222B4FD17B689B68B3F5805FF8
:104FB80015D17B681B69002B11D17B685B6DBB60C9
:104FC8007B681B685B6A9AB2FB8913409AB2BB681C
:104FD8001A807B685B6D9A1C7B685A650DE07B685C
:104FE8005B6D591C7A6851657A681268526AD1B249
:104FF800FA89D2B20A40D2B21A707B68B3F85A3032
:105008009BB2013B9BB27A681946A2F85A10002B52
:1050180018D17B681B687A681268126822F490724B
:105028001A607B681B687A681268926822F001022D
:105038009A607B68202283F86A20786801F0F0FC87
:1050480000230AE0002308E07B681B687A6812687E
:10505800926942F008029A61022318461037BD4649
:1050680080BD00BF80B483B000AF78607B681B68E8
:105078007A681268126822F490721A607B681B685A
:105088007A681268926822F001029A607B6820228E
:1050980083F86A2000BF0C37BD4680BC704700BF4C
:1050A80080B485B000AF78600023FB600023BB604C
:1050B8007B6893F86930DBB2FB607B6893F86A30F1
:1050C800DBB2BB60FB68DAB2BB68DBB21343DBB2AE
:1050D80018461437BD4680BC704700BF90B587B0EE
:1050E80000AF78600023FB601023FB7500237B81F1
:1050F8000023BB820023FB747B689A687B681B696A
:105108001A437B685B691A437B68DB691343FB605E
:105118007B681A687B681B681968AA4B0B40F9689A
:105128000B4313607B681B687A681268526822F424
:1051380040517A68D2680A435A607B689A697B68EA
:105148001B6A1343FB607B681B687A681268926865
:1051580022F43061FA680A439A607B681B689A4AAD
:1051680093421FD1994BD3F8903003F00303032BDC
:1051780000F23E8101A252F823F000BF95510008C9
:10518800A15100089B510008A75100080123FB7595
:105198002EE10223FB752BE10423FB7528E108238C
:1051A800FB7525E17B681B68894A934230D1874BA0
:1051B800D3F8903003F00C030C2B00F2198101A2F4
:1051C80052F823F001520008F9530008F953000877
:1051D800F95300080D520008F9530008F953000864
:1051E800F953000807520008F9530008F95300085A
:1051F800F9530008135200080023FB75F8E0022356
:10520800FB75F5E00423FB75F2E00823FB75EFE07E
:105218007B681B686F4A93421CD16C4BD3F8903063
:1052280003F03003102B0FD0102B02D8002B05D021
:10523800DEE0202B05D0302B09D0D9E00023FB7508
:10524800D6E00223FB75D3E00423FB75D0E00823E6
:10525800FB75CDE07B681B685F4A93421CD15B4BB2
:10526800D3F8903003F0C003402B0FD0402B02D866
:10527800002B05D0BCE0802B05D0C02B09D0B7E0AF
:105288000023FB75B4E00223FB75B1E00423FB7532
:10529800AEE00823FB75ABE07B681B684F4A93427E
:1052A80020D14A4BD3F8903003F44073B3F5807F94
:1052B80012D0B3F5807F02D8002B07D098E0B3F561
:1052C800007F06D0B3F5407F09D091E00023FB753D
:1052D8008EE00223FB758BE00423FB7588E008232E
:1052E800FB7585E07B681B683D4A934220D1374BAC
:1052F800D3F8903003F44063B3F5806F12D0B3F560
:10530800806F02D8002B07D072E0B3F5006F06D08B
:10531800B3F5406F09D06BE00123FB7568E0022309
:10532800FB7565E00423FB7562E00823FB755FE00D
:105338007B681B682B4A934220D1244BD3F89030CA
:1053480003F44053B3F5805F12D0B3F5805F02D801
:10535800002B07D04CE0B3F5005F06D0B3F5405FF3
:1053680009D045E00023FB7542E00223FB753FE0CE
:105378000423FB753CE00823FB7539E07B681B6858
:10538800194A934235D1114BD3F8903003F4404376
:10539800B3F5804F12D0B3F5804F02D8002B07D059
:1053A80026E0B3F5004F06D0B3F5404F1ED01FE0FE
:1053B8000023FB751CE00223FB7519E00423FB7531
:1053C80016E000BFF369FFEF00100140003802400B
:1053D8000044004000480040004C0040005000409D
:1053E8000014014000780040007C00400823FB7551
:1053F80000BF7B68DB69B3F5004F6ED1FB7D082BDE
:1054080056D801A252F823F0355400085154000828
:105418006D540008B954000887540008B9540008AE
:10542800B9540008B9540008A354000800F0D6FD88
:1054380003465A007B685B685B081A447B685B68B4
:10544800B2FBF3F3BB8236E000F0EAFD03465A00F4
:105458007B685B685B081A447B685B68B2FBF3F3A4
:10546800BB8228E07B685B685B0803F1F47303F593
:1054780090437A685268B3FBF2F3BB821BE000F0FA
:1054880025FD03465A007B685B685B081A447B6805
:105498005B68B2FBF3F3BB820DE07B685B685B087B
:1054A80003F580327B685B68B2FBF3F3BB8202E0F2
:1054B8000123FB7400BFBB8A23F00F037B81BB8AE7
:1054C8005B109BB203F007039AB27B8913437B817D
:1054D8007B681B687A89DA6069E0FB7D082B63D8F2
:1054E80001A252F823F000BF1555000835550008F1
:1054F80055550008B155000875550008B155000804
:10550800B1550008B1550008955500087B681C681E
:1055180000F064FD02467B685B685B081A447B68A0
:105528005B68B2FBF3F39BB2E36040E07B681C6806
:1055380000F076FD02467B685B685B081A447B686E
:105548005B68B2FBF3F39BB2E36030E07B681A68F8
:105558007B685B685B0803F5740303F5105379688F
:105568004968B3FBF1F39BB2D36020E07B681C6809
:1055780000F0ACFC02467B685B685B081A447B68F9
:105588005B68B2FBF3F39BB2E36010E07B681B68D7
:105598007A685268520802F500417A685268B1FB8D
:1055A800F2F292B2DA6002E00123FB7400BFFB7CE6
:1055B80018461C37BD4690BD80B483B000AF7860F4
:1055C8007B685B6A03F00103002B0AD07B681B68C9
:1055D8007A681268526822F400317A68926A0A433B
:1055E8005A607B685B6A03F00203002B0AD07B6871
:1055F8001B687A681268526822F480317A68D26A25
:105608000A435A607B685B6A03F00403002B0AD0E4
:105618007B681B687A681268526822F480217A686D
:10562800126B0A435A607B685B6A03F00803002B1D
:105638000AD07B681B687A681268526822F40041B5
:105648007A68526B0A435A607B685B6A03F01003FE
:10565800002B0AD07B681B687A681268926822F46B
:1056680080517A68926B0A439A607B685B6A03F0A0
:105678002003002B0AD07B681B687A68126892683E
:1056880022F400517A68D26B0A439A607B685B6A9D
:1056980003F04003002B1AD07B681B687A681268F5
:1056A800526822F480117A68126C0A435A607B6847
:1056B8001B6CB3F5801F0AD17B681B687A68126877
:1056C800526822F4C0017A68526C0A435A607B68B7
:1056D8005B6A03F08003002B0AD07B681B687A683A
:1056E8001268526822F400217A68926C0A435A6060
:1056F80000BF0C37BD4680BC704700BF80B586B080
:1057080002AF78600023FB607B680022DA6601F054
:105718008BF8F8607B681B681B6803F00803002B94
:105728000ED06FF07E430093FB6800224FF4001107
:105738007868FFF749FB0346002B01D003230CE0F0
:105748007B68202283F869207B68202283F86A20FE
:105758007B68002283F86820002318461037BD466E
:1057680080BD00BF80B592B000AF786000233B6475
:10577800002387F847307B681B6803F00103002B80
:1057880000F08680A04B9B6803F00C03042B0BD021
:105798009D4B9B6803F00C03082B11D19A4B5B6857
:1057A80003F48003002B0BD0974B1B6803F40033E2
:1057B800002B6CD07B685B68002B68D1012381E2E9
:1057C8007B685B68B3F5803F06D18F4A8E4B1B68B8
:1057D80043F4803313602EE07B685B68002B0CD1A8
:1057E800894A894B1B6823F480331360864A864BA9
:1057F8001B6823F4802313601DE07B685B68B3F5A6
:10580800A02F0CD1804A804B1B6843F4802313607F
:105818007D4A7D4B1B6843F4803313600BE07A4A62
:10582800794B1B6823F480331360774A764B1B68E7
:1058380023F4802313607B685B68002B13D000F08F
:10584800F3FF386408E000F0EFFF02463B6CD31A20
:10585800642B01D9032335E26B4B1B6803F4003337
:10586800002BF0D014E000F0DFFF386408E000F00F
:10587800DBFF02463B6CD31A642B01D9032321E2D8
:10588800614B1B6803F40033002BF0D100E000BF2C
:105898007B681B6803F00203002B7DD05A4B9B6882
:1058A80003F00C03002B0BD0574B9B6803F00C0341
:1058B800082B26D1544B5B6803F48003002B20D1BE
:1058C800514B1B6803F00203002B05D07B68DB6893
:1058D800012B01D00123F5E14B484B4B1B6823F00A
:1058E800F8027B681969F823BB62BB6A93FAA3F3D1
:1058F8007B627B6AB3FA83F301FA03F31343036011
:105908004AE07B68DB68002B2DD03F4A3E4B1B6882
:1059180043F00103136000F087FF386408E000F0EB
:1059280083FF02463B6CD31A022B01D90323C9E13A
:10593800354B1B6803F00203002BF0D03248324B82
:105948001B6823F0F8027B681969F823BB63BB6BFB
:1059580093FAA3F33B623B6AB3FA83F301FA03F3C6
:105968001343036018E0284A274B1B6823F0010300
:10597800136000F059FF386408E000F055FF024654
:105988003B6CD31A022B01D903239BE11E4B1B68E6
:1059980003F00203002BF0D17B681B6803F00803B7
:1059A800002B39D07B685B69002B19D0164A164B3F
:1059B8005B6F43F00103536700F036FF386408E07B
:1059C80000F032FF02463B6CD31A022B01D90323A5
:1059D80078E10D4B5B6F03F00203002BF0D01BE066
:1059E800094A094B5B6F23F00103536700F01CFF62
:1059F80038640BE000F018FF02463B6CD31A022B08
:105A080004D903235EE100BF00380240A64B5B6F58
:105A180003F00203002BEDD17B681B6803F004033D
:105A2800002B00F0A680A04B1B6C03F08053002BCA
:105A38000ED19D4A9C4B1B6C43F0805313649A4BC8
:105A48001B6C03F08053FB60FB68012387F8473029
:105A5800964B1B6803F48073002B18D1934A934B21
:105A68001B6843F48073136000F0DEFE386408E0BE
:105A780000F0DAFE02463B6CD31A642B01D90323EB
:105A880020E18A4B1B6803F48073002BF0D07B68FD
:105A98009B68012B06D1844A834B1B6F43F001039B
:105AA80013672DE07B689B68002B0CD17E4A7E4BE8
:105AB8001B6F23F0010313677B4A7B4B1B6F23F09B
:105AC800040313671CE07B689B68052B0CD1764A9E
